{"abi":[{"type":"constructor","inputs":[],"stateMutability":"nonpayable"},{"type":"function","name":"attest","inputs":[{"name":"escrowId","type":"bytes32","internalType":"bytes32"},{"name":"success","type":"bool","internalType":"bool"},{"name":"proofHash","type":"bytes32","internalType":"bytes32"}],"outputs":[],"stateMutability":"nonpayable"},{"type":"function","name":"createEscrow","inputs":[{"name":"intentId","type":"bytes32","internalType":"bytes32"},{"name":"provider","type":"address","internalType":"address"},{"name":"priceUsdc","type":"uint256","internalType":"uint256"},{"name":"stakedPenaltyUsdc","type":"uint256","internalType":"uint256"},{"name":"usdcToken","type":"address","internalType":"address"}],"outputs":[{"name":"escrowId","type":"bytes32","internalType":"bytes32"}],"stateMutability":"nonpayable"},{"type":"function","name":"escrows","inputs":[{"name":"","type":"bytes32","internalType":"bytes32"}],"outputs":[{"name":"intentId","type":"bytes32","internalType":"bytes32"},{"name":"requester","type":"address","internalType":"address"},{"name":"provider","type":"address","internalType":"address"},{"name":"priceUsdc","type":"uint256","internalType":"uint256"},{"name":"stakedPenaltyUsdc","type":"uint256","internalType":"uint256"},{"name":"usdc","type":"address","internalType":"address"},{"name":"locked","type":"bool","internalType":"bool"},{"name":"attested","type":"bool","internalType":"bool"},{"name":"success","type":"bool","internalType":"bool"},{"name":"proofHash","type":"bytes32","internalType":"bytes32"},{"name":"createdAt","type":"uint256","internalType":"uint256"}],"stateMutability":"view"},{"type":"function","name":"getEscrow","inputs":[{"name":"escrowId","type":"bytes32","internalType":"bytes32"}],"outputs":[{"name":"","type":"tuple","internalType":"struct RagentEscrow.Escrow","components":[{"name":"intentId","type":"bytes32","internalType":"bytes32"},{"name":"requester","type":"address","internalType":"address"},{"name":"provider","type":"address","internalType":"address"},{"name":"priceUsdc","type":"uint256","internalType":"uint256"},{"name":"stakedPenaltyUsdc","type":"uint256","internalType":"uint256"},{"name":"usdc","type":"address","internalType":"address"},{"name":"locked","type":"bool","internalType":"bool"},{"name":"attested","type":"bool","internalType":"bool"},{"name":"success","type":"bool","internalType":"bool"},{"name":"proofHash","type":"bytes32","internalType":"bytes32"},{"name":"createdAt","type":"uint256","internalType":"uint256"}]}],"stateMutability":"view"},{"type":"function","name":"isCoordinator","inputs":[{"name":"","type":"address","internalType":"address"}],"outputs":[{"name":"","type":"bool","internalType":"bool"}],"stateMutability":"view"},{"type":"function","name":"owner","inputs":[],"outputs":[{"name":"","type":"address","internalType":"address"}],"stateMutability":"view"},{"type":"function","name":"release","inputs":[{"name":"escrowId","type":"bytes32","internalType":"bytes32"}],"outputs":[],"stateMutability":"nonpayable"},{"type":"function","name":"setCoordinator","inputs":[{"name":"coordinator","type":"address","internalType":"address"},{"name":"enabled","type":"bool","internalType":"bool"}],"outputs":[],"stateMutability":"nonpayable"},{"type":"function","name":"slash","inputs":[{"name":"escrowId","type":"bytes32","internalType":"bytes32"}],"outputs":[],"stateMutability":"nonpayable"},{"type":"event","name":"Attested","inputs":[{"name":"escrowId","type":"bytes32","indexed":true,"internalType":"bytes32"},{"name":"success","type":"bool","indexed":false,"internalType":"bool"},{"name":"proofHash","type":"bytes32","indexed":false,"internalType":"bytes32"}],"anonymous":false},{"type":"event","name":"EscrowCreated","inputs":[{"name":"escrowId","type":"bytes32","indexed":true,"internalType":"bytes32"},{"name":"intentId","type":"bytes32","indexed":true,"internalType":"bytes32"},{"name":"provider","type":"address","indexed":true,"internalType":"address"},{"name":"priceUsdc","type":"uint256","indexed":false,"internalType":"uint256"},{"name":"stakedPenaltyUsdc","type":"uint256","indexed":false,"internalType":"uint256"}],"anonymous":false},{"type":"event","name":"Released","inputs":[{"name":"escrowId","type":"bytes32","indexed":true,"internalType":"bytes32"},{"name":"provider","type":"address","indexed":false,"internalType":"address"},{"name":"amount","type":"uint256","indexed":false,"internalType":"uint256"}],"anonymous":false},{"type":"event","name":"Slashed","inputs":[{"name":"escrowId","type":"bytes32","indexed":true,"internalType":"bytes32"},{"name":"provider","type":"address","indexed":false,"internalType":"address"},{"name":"penalty","type":"uint256","indexed":false,"internalType":"uint256"},{"name":"requester","type":"address","indexed":false,"internalType":"address"}],"anonymous":false}],"bytecode":{"object":"0x6080604052348015600f57600080fd5b50600280546001600160a01b031916339081179091556000908152600160208190526040909120805460ff19169091179055610fe9806100506000396000f3fe608060405234801561001057600080fd5b50600436106100935760003560e01c8063a652909011610066578063a6529090146101da578063aec32099146101ed578063e917af0714610220578063f023b81114610241578063f415ed141461036657600080fd5b80632d83549c1461009857806367d42a8b146101875780638da5cb5b1461019c578063a62afdf9146101c7575b600080fd5b6101186100a6366004610d7d565b6000602081905290815260409020805460018201546002830154600384015460048501546005860154600687015460079097015495966001600160a01b0395861696948616959394929382169260ff600160a01b8404811693600160a81b8104821693600160b01b909104909116918b565b604080519b8c526001600160a01b039a8b1660208d0152988a16988b019890985260608a019690965260808901949094529590911660a0870152151560c086015292151560e0850152911515610100840152610120830191909152610140820152610160015b60405180910390f35b61019a610195366004610d7d565b610379565b005b6002546101af906001600160a01b031681565b6040516001600160a01b03909116815260200161017e565b61019a6101d5366004610da7565b6105d3565b61019a6101e8366004610dfb565b61074d565b6102106101fb366004610e32565b60016020526000908152604090205460ff1681565b604051901515815260200161017e565b61023361022e366004610e54565b6107be565b60405190815260200161017e565b61035961024f366004610d7d565b6040805161016081018252600080825260208201819052918101829052606081018290526080810182905260a0810182905260c0810182905260e081018290526101008101829052610120810182905261014081019190915250600090815260208181526040918290208251610160810184528154815260018201546001600160a01b039081169382019390935260028201548316938101939093526003810154606084015260048101546080840152600581015491821660a084015260ff600160a01b83048116151560c0850152600160a81b83048116151560e0850152600160b01b909204909116151561010083015260068101546101208301526007015461014082015290565b60405161017e9190610ea4565b61019a610374366004610d7d565b610b23565b60008181526020819052604090206005810154600160a81b900460ff166103da5760405162461bcd60e51b815260206004820152601060248201526f139bdd08185d1d195cdd1959081e595d60821b60448201526064015b60405180910390fd5b6005810154600160b01b900460ff166104355760405162461bcd60e51b815260206004820152601760248201527f4174746573746174696f6e20776173206661696c75726500000000000000000060448201526064016103d1565b6005810154600160a01b900460ff166104825760405162461bcd60e51b815260206004820152600f60248201526e105b1c9958591e481cd95d1d1b1959608a1b60448201526064016103d1565b60058101805460ff60a01b198116909155600482015460038301546001600160a01b03909216916000916104b591610f6f565b9050801561058257600283015460405163a9059cbb60e01b81526001600160a01b039182166004820152602481018390529083169063a9059cbb906044016020604051808303816000875af1158015610512573d6000803e3d6000fd5b505050506040513d601f19601f820116820180604052508101906105369190610f96565b6105825760405162461bcd60e51b815260206004820152601760248201527f52656c65617365207472616e73666572206661696c656400000000000000000060448201526064016103d1565b6002830154604080516001600160a01b0390921682526020820183905285917fc8fa66dff4b9073528c3f1bf21a8dc9a18fdf09847e88e96188bc953aef519f091015b60405180910390a250505050565b3360009081526001602052604090205460ff16806105fb57506002546001600160a01b031633145b6106395760405162461bcd60e51b815260206004820152600f60248201526e2737ba1031b7b7b93234b730ba37b960891b60448201526064016103d1565b60008381526020819052604090206005810154600160a01b900460ff166106965760405162461bcd60e51b8152602060048201526011602482015270115cd8dc9bddc81b9bdd081b1bd8dad959607a1b60448201526064016103d1565b6005810154600160a81b900460ff16156106e55760405162461bcd60e51b815260206004820152601060248201526f105b1c9958591e48185d1d195cdd195960821b60448201526064016103d1565b600581018054841515600160b01b0261ffff60a81b1990911617600160a81b1790556006810182905560405184907f79d2d0a34fac7fb1e72b8f8189d8860609ef8db0b8c56454aeb5e5b2d8d3a95a906105c590869086909115158252602082015260400190565b6002546001600160a01b031633146107935760405162461bcd60e51b81526020600482015260096024820152682737ba1037bbb732b960b91b60448201526064016103d1565b6001600160a01b03919091166000908152600160205260409020805460ff1916911515919091179055565b60006001600160a01b0385166108095760405162461bcd60e51b815260206004820152601060248201526f24b73b30b634b210383937bb34b232b960811b60448201526064016103d1565b60008411806108185750600083115b6108565760405162461bcd60e51b815260206004820152600f60248201526e496e76616c696420616d6f756e747360881b60448201526064016103d1565b600086815260208190526040902060050154600160a01b900460ff16156108bf5760405162461bcd60e51b815260206004820181905260248201527f457363726f7720616c72656164792065786973747320666f7220696e74656e7460448201526064016103d1565b5060008581526020819052604090208581556001810180546001600160a01b031990811633179091556002820180546001600160a01b038881169190931617905560038201859055600482018490556005820180546001600160a81b03191691841691909117600160a01b17905542600782015585908285156109ff576040516323b872dd60e01b8152336004820152306024820152604481018790526001600160a01b038216906323b872dd906064016020604051808303816000875af115801561098f573d6000803e3d6000fd5b505050506040513d601f19601f820116820180604052508101906109b39190610f96565b6109ff5760405162461bcd60e51b815260206004820152601960248201527f526571756573746572207472616e73666572206661696c65640000000000000060448201526064016103d1565b8415610aca576040516323b872dd60e01b81526001600160a01b038881166004830152306024830152604482018790528216906323b872dd906064016020604051808303816000875af1158015610a5a573d6000803e3d6000fd5b505050506040513d601f19601f82011682018060405250810190610a7e9190610f96565b610aca5760405162461bcd60e51b815260206004820181905260248201527f50726f76696465722070656e616c7479207472616e73666572206661696c656460448201526064016103d1565b866001600160a01b031688847fd4f4c3b58766ed939f7240eee04525eefa31f266dedf6cc7af83abc0ea0c24fd8989604051610b10929190918252602082015260400190565b60405180910390a4505095945050505050565b60008181526020819052604090206005810154600160a81b900460ff16610b7f5760405162461bcd60e51b815260206004820152601060248201526f139bdd08185d1d195cdd1959081e595d60821b60448201526064016103d1565b6005810154600160b01b900460ff1615610bdb5760405162461bcd60e51b815260206004820152601760248201527f4174746573746174696f6e20776173207375636365737300000000000000000060448201526064016103d1565b6005810154600160a01b900460ff16610c285760405162461bcd60e51b815260206004820152600f60248201526e105b1c9958591e481cd95d1d1b1959608a1b60448201526064016103d1565b60058101805460ff60a01b198116909155600482015460038301546001600160a01b0390921691600091610c5b91610f6f565b90508015610d2057600183015460405163a9059cbb60e01b81526001600160a01b039182166004820152602481018390529083169063a9059cbb906044016020604051808303816000875af1158015610cb8573d6000803e3d6000fd5b505050506040513d601f19601f82011682018060405250810190610cdc9190610f96565b610d205760405162461bcd60e51b815260206004820152601560248201527414db185cda081d1c985b9cd9995c8819985a5b1959605a1b60448201526064016103d1565b600283015460048401546001850154604080516001600160a01b039485168152602081019390935292169181019190915284907fa9af7fab13bf32d273232f27357193f2ddf6655b4479266fe735142426321c11906060016105c5565b600060208284031215610d8f57600080fd5b5035919050565b8015158114610da457600080fd5b50565b600080600060608486031215610dbc57600080fd5b833592506020840135610dce81610d96565b929592945050506040919091013590565b80356001600160a01b0381168114610df657600080fd5b919050565b60008060408385031215610e0e57600080fd5b610e1783610ddf565b91506020830135610e2781610d96565b809150509250929050565b600060208284031215610e4457600080fd5b610e4d82610ddf565b9392505050565b600080600080600060a08688031215610e6c57600080fd5b85359450610e7c60208701610ddf565b93506040860135925060608601359150610e9860808701610ddf565b90509295509295909350565b81518152602080830151610160830191610ec8908401826001600160a01b03169052565b506040830151610ee360408401826001600160a01b03169052565b50606083015160608301526080830151608083015260a0830151610f1260a08401826001600160a01b03169052565b5060c0830151610f2660c084018215159052565b5060e0830151610f3a60e084018215159052565b50610100830151610f5061010084018215159052565b5061012083015161012083015261014083015161014083015292915050565b80820180821115610f9057634e487b7160e01b600052601160045260246000fd5b92915050565b600060208284031215610fa857600080fd5b8151610e4d81610d9656fea26469706673582212201b2dae2909238c2a3e6aebef2e013e42647fe2ecf30c916e0c65fd48d63b95a364736f6c634300081a0033","linkReferences":{}},"methodIdentifiers":{"attest(bytes32,bool,bytes32)":"a62afdf9","createEscrow(bytes32,address,uint256,uint256,address)":"e917af07","escrows(bytes32)":"2d83549c","getEscrow(bytes32)":"f023b811","isCoordinator(address)":"aec32099","owner()":"8da5cb5b","release(bytes32)":"67d42a8b","setCoordinator(address,bool)":"a6529090","slash(bytes32)":"f415ed14"},"id":22}