{"abi":[{"type":"constructor","inputs":[],"stateMutability":"nonpayable"},{"type":"function","name":"isCoordinator","inputs":[{"name":"","type":"address","internalType":"address"}],"outputs":[{"name":"","type":"bool","internalType":"bool"}],"stateMutability":"view"},{"type":"function","name":"logNegotiationStarted","inputs":[{"name":"intentId","type":"bytes32","internalType":"bytes32"},{"name":"requester","type":"address","internalType":"address"},{"name":"provider","type":"address","internalType":"address"},{"name":"priceUsdc","type":"uint256","internalType":"uint256"},{"name":"stakedPenalty","type":"uint256","internalType":"uint256"},{"name":"circleWalletId","type":"string","internalType":"string"},{"name":"circleWalletAddr","type":"address","internalType":"address"}],"outputs":[],"stateMutability":"nonpayable"},{"type":"function","name":"logOutcome","inputs":[{"name":"intentId","type":"bytes32","internalType":"bytes32"},{"name":"success","type":"bool","internalType":"bool"},{"name":"proofHash","type":"bytes32","internalType":"bytes32"},{"name":"circleTransactionId","type":"string","internalType":"string"}],"outputs":[],"stateMutability":"nonpayable"},{"type":"function","name":"logReputation","inputs":[{"name":"intentId","type":"bytes32","internalType":"bytes32"},{"name":"agentId","type":"uint256","internalType":"uint256"},{"name":"score","type":"int128","internalType":"int128"},{"name":"tag","type":"string","internalType":"string"}],"outputs":[],"stateMutability":"nonpayable"},{"type":"function","name":"owner","inputs":[],"outputs":[{"name":"","type":"address","internalType":"address"}],"stateMutability":"view"},{"type":"function","name":"setCoordinator","inputs":[{"name":"coordinator","type":"address","internalType":"address"},{"name":"enabled","type":"bool","internalType":"bool"}],"outputs":[],"stateMutability":"nonpayable"},{"type":"event","name":"NegotiationStarted","inputs":[{"name":"intentId","type":"bytes32","indexed":true,"internalType":"bytes32"},{"name":"requester","type":"address","indexed":true,"internalType":"address"},{"name":"provider","type":"address","indexed":true,"internalType":"address"},{"name":"priceUsdc","type":"uint256","indexed":false,"internalType":"uint256"},{"name":"stakedPenalty","type":"uint256","indexed":false,"internalType":"uint256"},{"name":"circleWalletId","type":"string","indexed":false,"internalType":"string"},{"name":"circleWalletAddr","type":"address","indexed":false,"internalType":"address"}],"anonymous":false},{"type":"event","name":"OutcomeLogged","inputs":[{"name":"intentId","type":"bytes32","indexed":true,"internalType":"bytes32"},{"name":"success","type":"bool","indexed":false,"internalType":"bool"},{"name":"proofHash","type":"bytes32","indexed":false,"internalType":"bytes32"},{"name":"circleTransactionId","type":"string","indexed":false,"internalType":"string"}],"anonymous":false},{"type":"event","name":"ReputationRecorded","inputs":[{"name":"intentId","type":"bytes32","indexed":true,"internalType":"bytes32"},{"name":"agentId","type":"uint256","indexed":true,"internalType":"uint256"},{"name":"score","type":"int128","indexed":false,"internalType":"int128"},{"name":"tag","type":"string","indexed":false,"internalType":"string"}],"anonymous":false}],"bytecode":{"object":"0x6080604052348015600f57600080fd5b50600080546001600160a01b0319163390811782558152600160208190526040909120805460ff191690911790556106718061004c6000396000f3fe608060405234801561001057600080fd5b50600436106100625760003560e01c8063664c6039146100675780636edfa1a91461007c5780638da5cb5b1461008f578063a59c8eb2146100bf578063a6529090146100d2578063aec32099146100e5575b600080fd5b61007a61007536600461038e565b610118565b005b61007a61008a366004610414565b6101a9565b6000546100a2906001600160a01b031681565b6040516001600160a01b0390911681526020015b60405180910390f35b61007a6100cd366004610476565b610232565b61007a6100e0366004610508565b6102d4565b6101086100f336600461053b565b60016020526000908152604090205460ff1681565b60405190151581526020016100b6565b3360009081526001602052604090205460ff168061014057506000546001600160a01b031633145b6101655760405162461bcd60e51b815260040161015c9061055d565b60405180910390fd5b83857f824bb6d9e740ca6c0505d9b8558a9013861d8b6a161fb298f79c57bad65beccb85858560405161019a939291906105af565b60405180910390a35050505050565b3360009081526001602052604090205460ff16806101d157506000546001600160a01b031633145b6101ed5760405162461bcd60e51b815260040161015c9061055d565b847f87070a00828abf896d18a0f187a8cad4cdee509dc81532ef7fecb8fa973694f58585858560405161022394939291906105d5565b60405180910390a25050505050565b3360009081526001602052604090205460ff168061025a57506000546001600160a01b031633145b6102765760405162461bcd60e51b815260040161015c9061055d565b856001600160a01b0316876001600160a01b0316897fa4fc6fc42f89ad88eb18025769c038e4646a79f5d68e1fe19b430579e6ac526988888888886040516102c2959493929190610601565b60405180910390a45050505050505050565b6000546001600160a01b0316331461031a5760405162461bcd60e51b81526020600482015260096024820152682737ba1037bbb732b960b91b604482015260640161015c565b6001600160a01b03919091166000908152600160205260409020805460ff1916911515919091179055565b60008083601f84011261035757600080fd5b50813567ffffffffffffffff81111561036f57600080fd5b60208301915083602082850101111561038757600080fd5b9250929050565b6000806000806000608086880312156103a657600080fd5b85359450602086013593506040860135600f81900b81146103c657600080fd5b9250606086013567ffffffffffffffff8111156103e257600080fd5b6103ee88828901610345565b969995985093965092949392505050565b8035801515811461040f57600080fd5b919050565b60008060008060006080868803121561042c57600080fd5b8535945061043c602087016103ff565b935060408601359250606086013567ffffffffffffffff8111156103e257600080fd5b80356001600160a01b038116811461040f57600080fd5b60008060008060008060008060e0898b03121561049257600080fd5b883597506104a260208a0161045f565b96506104b060408a0161045f565b9550606089013594506080890135935060a089013567ffffffffffffffff8111156104da57600080fd5b6104e68b828c01610345565b90945092506104f9905060c08a0161045f565b90509295985092959890939650565b6000806040838503121561051b57600080fd5b6105248361045f565b9150610532602084016103ff565b90509250929050565b60006020828403121561054d57600080fd5b6105568261045f565b9392505050565b6020808252600f908201526e2737ba1031b7b7b93234b730ba37b960891b604082015260600190565b81835281816020850137506000828201602090810191909152601f909101601f19169091010190565b83600f0b81526040602082015260006105cc604083018486610586565b95945050505050565b84151581528360208201526060604082015260006105f7606083018486610586565b9695505050505050565b858152846020820152608060408201526000610621608083018587610586565b905060018060a01b0383166060830152969550505050505056fea264697066735822122089eadd701e59fd25a20ae901a5e2994dd9acd7239559ccf4bd067622357ef3ef64736f6c634300081a0033","linkReferences":{}},"methodIdentifiers":{"isCoordinator(address)":"aec32099","logNegotiationStarted(bytes32,address,address,uint256,uint256,string,address)":"a59c8eb2","logOutcome(bytes32,bool,bytes32,string)":"6edfa1a9","logReputation(bytes32,uint256,int128,string)":"664c6039","owner()":"8da5cb5b","setCoordinator(address,bool)":"a6529090"},"id":0}